:100000000C9407060C9438060C9438060C943806A9
:100010000C9438060C9438060C9438060C94380668
:100020000C9438060C9438060C9438060C94380658
:100030000C9438060C9438060C9438060C94380648
:100040000C9438060C9438060C9438060C94380638
:100050000C9438060C9438060C9438060C94CA0993
:100060000C9438060C949E0A0C94740A0C9438066E
:100070000C9438060C9438060C9438060C94380608
:100080000C9438060C9438060C9438060C943806F8
:100090000C9438060C9438060C9438060C943806E8
:1000A0000C9438060C9438060C9438060C943806D8
:1000B0000C9438060C9438060C9438060C943806C8
:1000C0000C9438060C9438060C9438060C943E0AAE
:1000D0000C94140A0C9438060C9438060C943806C8
:1000E0000C9438060C94E6070C94B3060C94FD07A8
:1000F0000C94D40A0C9408080C94E4060C9426077B
:100100000C94E7070C948E070C94D6060C94F20717
:100110000C9486060C94C2060C94DB07E29494E2DD
:100120009480E29480E29480E29480E29480E2946D
:1001300080E29480E29480E29480E29480E2948071
:10014000E29480E29480E29480E29480E29480E2FF
:100150009480E29480E29480E29480E29480E2943D
:1001600080E29480E29480E29480E29480E2948041
:10017000E29480E29480E29480E29480E29480E2CF
:100180009480E29480E29480E29480E29480E2940D
:1001900080E29480E29480E29480E29480E2948011
:1001A000E29480E29480E29480E29480E29480E29F
:1001B0009480E29480E29480E29480E29480E294DD
:1001C00080E29480E29480E29480E29480E29480E1
:1001D000E29480E29480E29480E29480E29480E26F
:1001E0009480E29480E294980A00E294820A0020CB
:1001F00052657175C3AA74657320736F756D6973E9
:1002000065732076657273206C27415049205765CD
:10021000622020203A20203C50415320454E434F3D
:10022000524520464149543E2020202020202020B5
:10023000202000E2948200E2949CE29480E2948088
:10024000E29480E29480E29480E29480E29480E2FE
:100250009480E29480E29480E29480E29480E2943C
:1002600080E29480E29480E29480E29480E2948040
:10027000E29480E29480E29480E29480E29480E2CE
:100280009480E29480E29480E29480E29480E2940C
:1002900080E29480E29480E29480E29480E2948010
:1002A000E29480E29480E29480E29480E29480E29E
:1002B0009480E29480E29480E29480E29480E294DC
:1002C00080E29480E29480E29480E29480E29480E0
:1002D000E29480E29480E29480E29480E29480E26E
:1002E0009480E29480E29480E29480E29480E294AC
:1002F00080E29480E29480E29480E29480E29480B0
:10030000E294A40A00E294820A0020446F6E6EC355
:10031000A965732076616C696465207265C3A775F1
:100320007320647520554E4F20202020202020204F
:100330003A20203330373520202020202020202054
:10034000202020202020202020202020202000E20B
:10035000948200E2949CE29480E29480E29480E2B1
:100360009480E29480E29480E29480E29480E2942B
:1003700080E29480E29480E29480E29480E294802F
:10038000E29480E29480E29480E29480E29480E2BD
:100390009480E29480E29480E29480E29480E294FB
:1003A00080E29480E29480E29480E29480E29480FF
:1003B000E29480E29480E29480E29480E29480E28D
:1003C0009480E29480E29480E29480E29480E294CB
:1003D00080E29480E29480E29480E29480E29480CF
:1003E000E29480E29480E29480E29480E29480E25D
:1003F0009480E29480E29480E29480E29480E2949B
:1004000080E29480E29480E29480E29480E294809E
:10041000E29480E29480E29480E29480E294A40AE0
:1004200000E294822050726F6A65742072C3A961E1
:100430006C6973C3A92070617220202020203A20AB
:100440005562657274204775657274696E2020204C
:100450002020202020202020202054503032202D09
:100460002D3E204D45474120E294820A00E2949CB3
:10047000E29480E29480E29480E29480E29480E2CC
:100480009480E29480E29480E29480E29480E2940A
:1004900080E29480E29480E29480E29480E294800E
:1004A000E29480E29480E29480E29480E29480E29C
:1004B0009480E29480E29480E29480E29480E294DA
:1004C00080E29480E29480E29480E29480E29480DE
:1004D000E29480E29480E29480E29480E29480E26C
:1004E0009480E29480E29480E29480E29480E294AA
:1004F00080E29480E29480E29480E29480E29480AE
:10050000E29480E29480E29480E29480E29480E23B
:100510009480E29480E29480E29480E29480E29479
:1005200080E29480E29480E29480E29480E294807D
:10053000E29480E29480E294A40A00E29482205340
:10054000797374C3A86D652064C3A96D617272C3A9
:10055000A920646570756973203A2020202020202E
:10056000202020202020202020202020202020208B
:10057000202020202020202020202020202020207B
:10058000202020E294820A00E2949CE29480E2948B
:1005900080E29480E29480E29480E29480E294800D
:1005A000E29480E29480E29480E29480E29480E29B
:1005B0009480E29480E29480E29480E29480E294D9
:1005C00080E29480E29480E29480E29480E29480DD
:1005D000E29480E29480E29480E29480E29480E26B
:1005E0009480E29480E29480E29480E29480E294A9
:1005F00080E29480E29480E29480E29480E29480AD
:10060000E29480E29480E29480E29480E29480E23A
:100610009480E29480E29480E29480E29480E29478
:1006200080E29480E29480E29480E29480E294807C
:10063000E29480E29480E29480E29480E29480E20A
:100640009480E29480E29480E29480E29480E29448
:1006500080E294A40A00E29482202020202020201E
:10066000202020202020202020202020202020208A
:10067000202020202020202020202020202020207A
:10068000202020202020202020202020202020206A
:100690002020202020202020202020E294820A00F8
:1006A000E2948220202020202020202020202020B2
:1006B000202020202020202020202020202020203A
:1006C000202020202020202020202020202020202A
:1006D000202020202020202020202020202020201A
:1006E0002020202020E294820A00E2948220202010
:1006F00020202020202020202020202020202020FA
:1007000020202020202020202020202020202020E9
:1007100020202020202020202020202020202020D9
:10072000202020202020202020202020202020E207
:1007300094820A00E2948220202020202020202081
:1007400020202020202020202020202020202020A9
:100750002020202020202020202020202020202099
:100760002020202020202020202020202020202089
:10077000202020202020202020E294820A00E294E1
:100780008220202020202020202020202020202007
:100790002020202020202020202020202020202059
:1007A0002020202020202020202020202020202049
:1007B0002020202020202020202020202020202039
:1007C000202020E294820A00E2948220202020202F
:1007D0002020202020202020202020202020202019
:1007E0002020202020202020202020202020202009
:1007F00020202020202020202020202020202020F9
:1008000020202020202020202020202020E2948250
:100810000A00E29482202020202020202020202076
:1008200020202020202020202020202020202020C8
:1008300020202020202020202020202020202020B8
:1008400020202020202020202020202020202020A8
:1008500020202020202020E294820A00E29482209E
:100860002020202020202020202020202020202088
:100870002020202020202020202020202020202078
:100880002020202020202020202020202020202068
:100890002020202020202020202020202020202058
:1008A00020E294820A00E29482202020202020204E
:1008B0002020202020202020202020202020202038
:1008C0002020202020202020202020202020202028
:1008D0002020202020202020202020202020202018
:1008E0002020202020202020202020E294820A00A6
:1008F000E294822020202020202020202020202060
:1009000020202020202020202020202020202020E7
:1009100020202020202020202020202020202020D7
:1009200020202020202020202020202020202020C7
:100930002020202020E294820A00E29482202020BD
:1009400020202020202020202020202020202020A7
:100950002020202020202020202020202020202097
:100960002020202020202020202020202020202087
:10097000202020202020202020202020202020E2B5
:1009800094820A00E294822020202020202020202F
:100990002020202020202020202020202020202057
:1009A0002020202020202020202020202020202047
:1009B0002020202020202020202020202020202037
:1009C000202020202020202020E294820A00E2948F
:1009D00082202020202020202020202020202020B5
:1009E0002020202020202020202020202020202007
:1009F00020202020202020202020202020202020F7
:100A000020202020202020202020202020202020E6
:100A1000202020E294820A00E2949CE29480E294F6
:100A200080E29480E29480E29480E29480E2948078
:100A3000E29480E29480E29480E29480E29480E206
:100A40009480E29480E29480E29480E29480E29444
:100A500080E29480E29480E29480E29480E2948048
:100A6000E29480E29480E29480E29480E29480E2D6
:100A70009480E29480E29480E29480E29480E29414
:100A800080E29480E29480E29480E29480E2948018
:100A9000E29480E29480E29480E29480E29480E2A6
:100AA0009480E29480E29480E29480E29480E294E4
:100AB00080E29480E29480E29480E29480E29480E8
:100AC000E29480E29480E29480E29480E29480E276
:100AD0009480E29480E29480E29480E29480E294B4
:100AE00080E294A40A00E294820A002020202020C0
:100AF000202020202020202020202020202053746F
:100B00006174696F6E20646520636F6E7472C3B424
:100B10006C65204D45474120332E30202020202079
:100B2000202020202020202020202020202000E223
:100B3000948200E2948CE29480E29480E29480E2D9
:100B40009480E29480E29480E29480E29480E29443
:100B500080E29480E29480E29480E29480E2948047
:100B6000E29480E29480E29480E29480E29480E2D5
:100B70009480E29480E29480E29480E29480E29413
:100B800080E29480E29480E29480E29480E2948017
:100B9000E29480E29480E29480E29480E29480E2A5
:100BA0009480E29480E29480E29480E29480E294E3
:100BB00080E29480E29480E29480E29480E29480E7
:100BC000E29480E29480E29480E29480E29480E275
:100BD0009480E29480E29480E29480E29480E294B3
:100BE00080E29480E29480E29480E29480E29480B7
:100BF000E29480E29480E29480E29480E294900A0D
:100C0000001B5B306D001B5B39336D00D40A11246F
:100C10001FBECFEFD1E2DEBFCDBF00E00CBF25E0AD
:100C2000A8E1B4E001C01D92A03AB207E1F714E0D8
:100C3000A0E0B2E0E2EDF9E200E00BBF02C00790F5
:100C40000D92A831B107D9F716E0C7E0D6E000E071
:100C500006C021970109802FFE010E94E410C630D2
:100C6000D10780E00807A9F70E94440B0C94E71411
:100C70000C940000FC01A089B18982E08C93A485CA
:100C8000B5851C92A685B78587E68C93108EA489BE
:100C9000B58986E08C93A289B3898C9180618C930D
:100CA000A289B3898C9188608C93A289B3898C9135
:100CB00080688C930288F389E02D80818F7D80830A
:100CC00008953FB7F8948091500490915104A091F9
:100CD0005204B091530426B5A89B05C02F3F19F0CC
:100CE0000196A11DB11D3FBFBA2FA92F982F8827AC
:100CF000BC01CD01620F711D811D911D42E0660F87
:100D0000771F881F991F4A95D1F70895AF92BF9218
:100D1000CF92DF92EF92FF920F931F93CF93DF93C7
:100D20006C017B018B01040F151FEB015E01AE18F6
:100D3000BF08C017D10759F06991D601ED91FC9118
:100D40000190F081E02DC6011995892B79F7C50135
:100D5000DF91CF911F910F91FF90EF90DF90CF9097
:100D6000BF90AF900895FC01538D448D252F30E046
:100D7000842F90E0821B930B541710F0CF960895A8
:100D800001970895FC01918D828D981761F0A28DD5
:100D9000AE0FBF2FB11D5D968C91928D9F5F9F739B
:100DA000928F90E008958FEF9FEF0895FC01918D51
:100DB000828D981731F0828DE80FF11D858D90E0BE
:100DC00008958FEF9FEF0895FC01918D228D892F5B
:100DD00090E0805C9F4F821B91098F739927089543
:100DE00084E594E00E94E40621E0892B09F420E0E8
:100DF000822F089581EF94E00E94E40621E0892B80
:100E000009F420E0822F0895FC01A48DA80FB92FCA
:100E1000B11DA35ABF4F2C91848D90E001968F7322
:100E20009927848FA689B7892C93A089B1898C9141
:100E3000837080648C93938D848D981306C0028890
:100E4000F389E02D80818F7D80830895EF92FF925A
:100E50000F931F93CF93DF93EC0181E0888F9B8DDD
:100E60008C8D98131AC0E889F989808185FF15C097
:100E70009FB7F894EE89FF896083E889F9898081BA
:100E80008370806480839FBF81E090E0DF91CF9189
:100E90001F910F91FF90EF900895F62E0B8D10E0AB
:100EA0000F5F1F4F0F731127E02E8C8D8E110CC01A
:100EB0000FB607FCFACFE889F989808185FFF5CF65
:100EC000CE010E940407F1CFEB8DEC0FFD2FF11D39
:100ED000E35AFF4FF0829FB7F8940B8FEA89FB89A2
:100EE00080818062CFCF0F931F93CF93DF938C01CC
:100EF000D0E0C0E0F801EC0FFD1F6491662341F0E3
:100F000081EF94E00E942607892B11F02196F2CF01
:100F1000CE01DF91CF911F910F910895CF93DF9371
:100F2000EC01888D8823B9F0AA89BB89E889F98901
:100F30008C9185FD03C0808186FD0DC00FB607FC36
:100F4000F7CF8C9185FFF2CF808185FFEDCFCE0169
:100F50000E940407E9CFDF91CF91089580E090E0EF
:100F6000892B29F00E94FA0681110E94000080E07E
:100F700090E0892B49F080E090E0892B29F00E94D5
:100F8000000081110E94000080E090E0892B29F090
:100F90000E94F00681110E94000080E090E0892B01
:100FA00049F080E090E0892B29F00E940000811137
:100FB0000C9400000895DC011C968D919C91DC013D
:100FC000ED91FC910190F081E02D19940895DC01E0
:100FD0001C968D919C91DC01ED91FC910484F5852A
:100FE000E02D1994DC011C968D919C91DC01ED9112
:100FF000FC910284F385E02D1994DC011C968D91FF
:101000009C91DC01ED91FC910084F185E02D199417
:1010100090E080E00895FB0101900020E9F731970E
:10102000AF01461B570BDC01ED91FC910280F3816F
:10103000E02D19948F929F92AF92BF92EF92FF9200
:101040000F931F93CF93DF93CDB7DEB7A1970FB662
:10105000F894DEBF0FBECDBF7C01FA01CB0119A20F
:10106000223008F42AE08E010F5D1F4F822E912C52
:10107000B12CA12CBF01A50194010E94C210F9015D
:10108000CA016A300CF5605DD8016E938D01232B87
:10109000242B252B79F790E080E0109721F0BD01FB
:1010A000C7010E940B08A1960FB6F894DEBF0FBED1
:1010B000CDBFDF91CF911F910F91FF90EF90BF9027
:1010C000AF909F908F900895695CDECF0F931F9330
:1010D000CF93DF93182F062FCEE8D5E08C859D8522
:1010E000DC01ED91FC910280F381E02D42E050E0C3
:1010F0006AE372E01995402F50E070E060E02AE06A
:10110000CE010E941A088C859D85DC01ED91FC9131
:101110000190F081E02D6BE31995412F50E070E0D4
:1011200060E02AE0CE010E941A088C859D85DC01D2
:10113000ED91FC910190F081E02D68E4DF91CF9179
:101140001F910F911994009729F0BC0181EF94E051
:101150000C940B0890E080E00895EF92FF920F93BB
:101160001F93CF93DF93F82EE92E83E00E94660849
:101170008F2D9E2D0E94A30889EC93E00E94A30866
:10118000D0E0C0E002E310E0EF2DFE2D30E020E0E3
:101190008191882331F0807C8038D1F32F5F3F4FDD
:1011A000F7CFC801821B930BC817D9073CF46DE237
:1011B00081EF94E00E9426072196E6CF8DE392E02E
:1011C000DF91CF911F910F91FF90EF900C94A308A6
:1011D0004F925F926F927F928F929F92AF92BF9247
:1011E000CF92DF92EF92FF920F931F93CF936B01F9
:1011F0007C01742EAC019B010E94FF116FE372E031
:10120000811126C046015701E894B7F82FEF3FEF50
:101210004FE75FE7C501B4010E94FF1181110CC0C7
:101220002FEF3FEF4FE75FE7C501B4010E949E0F2C
:1012300063E472E0181664F02FEF3FEF4FE75FE4CE
:10124000C701B6010E94FA111816ACF467E472E007
:1012500081EF94E0CF911F910F91FF90EF90DF907D
:10126000CF90BF90AF909F908F907F906F905F9046
:101270004F900C940B082FEF3FEF4FE75FECC70147
:10128000B6010E949E0F87FDE1CF20E030E0A9016A
:10129000C701B6010E949E0F10E000E087FF0AC060
:1012A0006DE281EF94E00E9426078C01F7FAF0943A
:1012B000F7F8F094C0E060E070E080E09FE37C1617
:1012C00041F020E030E040E251E40E945911CF5F4C
:1012D000F6CFA70196010E94ED102B013C010E9460
:1012E000CB114B015C012AE0BC01A40181EF94E029
:1012F0000E941A087C01E00EF11ECC23D1F1C50139
:10130000B4010E94A30F9B01AC01C301B2010E9472
:10131000EC104B015C016EE281EF94E00E94260725
:10132000E80EF91EC15028F120E030E040E251E41F
:10133000C501B4010E9404102B013C010E94CB1195
:101340004B01B12CA12C2AE0B501A40181EF94E05E
:101350000E941A08E80EF91EC501B4010E94A30FED
:101360009B01AC01C301B2010E94EC104B015C0176
:10137000D9CFC701CF911F910F91FF90EF90DF90D0
:10138000CF90BF90AF909F908F907F906F905F9025
:101390004F9008951F920F920FB60F9211242F9322
:1013A0003F938F939F93AF93BF9380914C04909101
:1013B0004D04A0914E04B0914F0430914B0423E0B2
:1013C000230F2D3758F50196A11DB11D20934B0415
:1013D00080934C0490934D04A0934E04B0934F041B
:1013E0008091500490915104A0915204B091530403
:1013F0000196A11DB11D8093500490935104A093B8
:101400005204B0935304BF91AF919F918F913F913C
:101410002F910F900FBE0F901F90189526E8230F65
:101420000296A11DB11DD2CF1F920F920FB60F923F
:1014300011240BB60F922F933F934F935F936F93AB
:101440007F938F939F93AF93BF93EF93FF9384E525
:1014500094E00E940407FF91EF91BF91AF919F919B
:101460008F917F916F915F914F913F912F910F904D
:101470000BBE0F900FBE0F901F9018951F920F92EA
:101480000FB60F9211240BB60F922F938F939F9349
:10149000EF93FF93E0916404F09165048081E09103
:1014A0006A04F0916B0482FD1DC0908180916D04EF
:1014B0008F5F8F7320916E04821741F0E0916D046D
:1014C000F0E0EC5AFB4F958F80936D04FF91EF9104
:1014D0009F918F912F910F900BBE0F900FBE0F9089
:1014E0001F9018958081F2CF1F920F920FB60F9226
:1014F00011240BB60F922F933F934F935F936F93EB
:101500007F938F939F93AF93BF93EF93FF9381EF5D
:1015100094E00E940407FF91EF91BF91AF919F91DA
:101520008F917F916F915F914F913F912F910F908C
:101530000BBE0F900FBE0F901F9018951F920F9229
:101540000FB60F9211240BB60F922F938F939F9388
:10155000EF93FF93E0910105F09102058081E09106
:101560000705F091080582FD1DC0908180910A0554
:101570008F5F8F7320910B05821741F0E0910A0570
:10158000F0E0EF50FB4F958F80930A05FF91EF91AC
:101590009F918F912F910F900BBE0F900FBE0F90C8
:1015A0001F9018958081F2CFE4E5F4E01382128257
:1015B00048EE53E060E070E04483558366837783B0
:1015C0008AE192E09183808325ED30E0358724879E
:1015D00024ED30E03787268720ED30E0318B208BFB
:1015E00021ED30E0338B228B22ED30E0358B248BE4
:1015F00026ED30E0378B268B118E128E138E148ED3
:10160000E1EFF4E01382128244835583668377838B
:101610009183808385EC90E09587848784EC90E0CB
:101620009787868780EC90E0918B808B81EC90E0AF
:10163000938B828B82EC90E0958B848B86EC90E090
:10164000978B868B118E128E138E148EAEE8B5E0BA
:1016500013961C921E92129714964D935D936D9360
:101660007C9317978CE292E011969C938E931F9631
:101670001C921E921E9751961C921E9250971D9678
:10168000FC93EE931C970895CF93DF93CDB7DEB70D
:10169000E9970FB6F894DEBF0FBECDBF789484B53E
:1016A000826084BD84B5816084BD85B5826085BD5E
:1016B00085B5816085BD80916E00816080936E00EC
:1016C00010928100809181008260809381008091DE
:1016D000810081608093810080918000816080938F
:1016E00080008091B10084608093B1008091B0004F
:1016F00081608093B000809191008260809391001E
:101700008091910081608093910080919000816030
:10171000809390008091A10082608093A1008091CD
:10172000A10081608093A1008091A00081608093DE
:10173000A00080912101826080932101809121018C
:10174000816080932101809120018160809320013C
:1017500080917A00846080937A0080917A00826020
:1017600080937A0080917A00816080937A008091E2
:101770007A00806880937A001092C10081EF94E033
:101780000E943A0669E872E081EF94E00E940B083B
:1017900065EA72E081EF94E00E940B0884E594E032
:1017A0000E943A0680919A0590919B05DC01ED918B
:1017B000FC910280F381E02D47E050E068EA72E09E
:1017C000199583E39BE00E9473078FE29BE00E94E0
:1017D000730780EB92E00E94A3088BEE9AE00E94D0
:1017E000730786EB92E00E94A30886EE9AE00E94BF
:1017F000730788E19AE00E9473078EEC99E00E94DB
:10180000730784E899E00E9473078AE399E00E94D5
:10181000730780EF98E00E94730786EA98E00E94C1
:1018200073078CE598E00E94730782E198E00E94BC
:10183000730788EC97E00E9473078EE797E00E9499
:10184000730784E397E00E9473078AEE96E00E9494
:10185000730780EA96E00E94730786E596E00E948F
:10186000730788E895E00E9473078BE395E00E9478
:1018700073078DE694E00E94730781E294E00E9472
:10188000730783E593E00E9473078FE493E00E945F
:1018900073078BEB92E00E94A3088AE093E00E941A
:1018A000730786EB92E00E94A30885E093E00E9414
:1018B000730787E392E00E94730783E392E00E943C
:1018C000730780EB92E00E94A3088FEE91E00E94E4
:1018D000730786EB92E00E94A3088AEE91E00E94D3
:1018E00073078CE191E00E94730764E070E081EC83
:1018F00092E00E94AD0865E070E086EC92E00E9404
:10190000AD0866E070E08BEC92E00E94AD0867E005
:1019100070E081ED92E00E94AD0868E070E088EE32
:1019200092E00E94AD0869E070E088E093E00E94D8
:10193000AD086AE070E081E293E00E94AD086BE0E0
:1019400070E080E393E00E94AD086CE070E084E416
:1019500093E00E94AD086DE070E081E593E00E94A5
:10196000AD086EE070E08BE593E00E94AD086FE09B
:1019700070E083E793E00E94AD0860E170E080E8EA
:1019800093E00E94AD08FE0131961F012E01F7E1A0
:101990004F0E511C80914304811116C02FB7F8944B
:1019A00080914C0490914D04A0914E04B0914F044D
:1019B0002FBF80933F0490934004A0934104B093C1
:1019C000420481E0809343040E9461064B015C0164
:1019D00094E6C92ED12CE12CF12C0E9461066819E5
:1019E00079098A099B09683E734081059105A8F32E
:1019F00021E0C21AD108E108F10888EE880E83E0E0
:101A0000981EA11CB11CC114D104E104F10429F7F2
:101A100084E594E00E94E406839709F079C20CE122
:101A200014E02FB7F89480914C0490914D04A0914C
:101A30004E04B0914F042FBF80935C0490935D04DB
:101A4000A0935E04B0935F0484E594E00E94C20614
:101A500097FF6AC22FB7F89480914C0490914D047F
:101A6000A0914E04B0914F042FBF40915C0450915F
:101A70005D0460915E0470915F04841B950BA60B5E
:101A8000B70B409158045091590460915A047091D9
:101A90005B0484179507A607B707B0F26090260489
:101AA00070902704B0912804B9AFE0912904ECAB01
:101AB000F0912A04FBAB00912B0410912C0480912F
:101AC0002D0490912E04A0912F04B09130048DAB81
:101AD0009EABAFABB8AF8090310490903204A09031
:101AE0003304B0903404A0913504B0913604B8ABFF
:101AF000AFA7C0903704D0903804E0903904F0903C
:101B00003A0480913B0490913C04A0913D04B09133
:101B10003E048BA79CA7ADA7BEA786E1E0E0F2E05C
:101B2000D10101900D928A95E1F764E088E30E946B
:101B3000660884E592E000FF02C08BE492E00E9418
:101B4000A30865E088E30E94660884E592E001FF4F
:101B500002C08BE492E00E94A30866E088E30E9442
:101B6000660884E592E002FF02C08BE492E00E94E6
:101B7000A30867E088E30E946608D801A078BB2725
:101B8000BAABA9AB88E692E007FF02C08DE592E010
:101B90000E94A30868E088E30E9466088BE492E054
:101BA00004FF02C084E592E00E94A30869E088E394
:101BB0000E9466088BE492E006FF02C084E592E092
:101BC0000E94A3086AE088E30E94660884EC93E020
:101BD00005FF02C084E592E00E94A3086BE088E361
:101BE0000E94660884EC93E003FF02C084E592E063
:101BF0000E94A3086CE088E30E94660887EC93E0EB
:101C00000E94A30842E06DA97EA98FA998AD0E9409
:101C1000E808E9A9FAA985E792E0EF2B11F083E73C
:101C200092E00E94A3086DE088E30E94660887ECBA
:101C300093E00E94A30842E0C501B4010E94E808B5
:101C400082E993E00E94A3086EE088E30E946608A0
:101C500086EC93E00E94A308EFA5F8A9EE0FFF1F02
:101C6000E20DF31D808191810E94A30888EC93E02E
:101C70000E94A3086FE088E30E9466081F92FBA9F8
:101C8000FF931F922CA92F931F9289AD8F93A4E9E4
:101C9000B3E0BF93AF931F9289E08F935F924F920F
:101CA0000E94041288EC93E00E94A308C2010E94E3
:101CB000A30860E188E30E9466080FB6F894DEBFCF
:101CC0000FBECDBF80E892E0672811F487E792E06D
:101CD0000E94A30862E18FE20E94660883EA93E013
:101CE0000E94A30887EA93E00E94A308C701B601F7
:101CF00028EE33E040E050E00E94C210BA01A90192
:101D00002AE081EF94E00E941A088DEA93E00E9495
:101D1000A30886EB92E00E94A30882EB93E00E9466
:101D2000A30887EA93E00E94A30842E06BA57CA584
:101D30008DA59EA50E94E80889EB92E00E94A30869
:101D400086EB92E00E94A3088091180490911904F8
:101D5000A0911A04B0911B040196A11DB11D80939E
:101D6000180490931904A0931A04B0931B048FB71E
:101D7000F89480904C0490904D04A0904E04B09044
:101D80004F048FBF80913F0490914004A091410483
:101D9000B0914204881A990AAA0ABB0AC501B40183
:101DA00028EE33E040E050E00E94C21069017A0161
:101DB000C501B40120E03CE546E255E00E94C210B6
:101DC000B22EA32E022F132FC701B60120E831E552
:101DD00041E050E00E94C21020E13EE040E050E0CF
:101DE0000E94C210922E832EC701B60120E13EE070
:101DF00040E050E00E94C2102CE330E040E050E0B0
:101E00000E94C210722E632EC701B6012CE330E08F
:101E100040E050E00E94C210F62EE72E62E18CE115
:101E20000E94660888EC93E00230110514F085E604
:101E300092E09F938F93AF92BF9286EB93E09F9334
:101E40008F931F9214E11F935F924F920E9404128E
:101E5000EF92FF926F927F928F929F92A4E9B3E0EC
:101E6000BF93AF931F921F933F922F920E94041231
:101E700086E09CE00E947307C2010E94A308C10192
:101E80000E94A30881E09CE00E947307C0901804A0
:101E9000D090190466E188E20E9466088BEB92E01C
:101EA0000E94A30880EC93E00E94A30886EB92E0D6
:101EB0000E94A30866E188E20E9466088BEB92E02C
:101EC0000E94A3080D2C000CEE08FF080FB6F89432
:101ED000DEBF0FBECDBF2AE0B701A601F7FE0DC0E1
:101EE0006DE281EF94E00E94260744275527BA014E
:101EF0004C195D096E097F092AE081EF94E00E9488
:101F00001A0886EB92E00E94A3080E94AE0742CD19
:101F100084E594E00E94E406892B09F428CF84E547
:101F200094E00E94C206F4CFD8018D938D01EFE3B7
:101F3000F4E0EA17FB0709F074CDB0CD0E94E00F82
:101F400008F481E00895E89409C097FB3EF4909569
:101F50008095709561957F4F8F4F9F4F9923A9F082
:101F6000F92F96E9BB279395F69587957795679511
:101F7000B795F111F8CFFAF4BB0F11F460FF1BC055
:101F80006F5F7F4F8F4F9F4F16C0882311F096E9E8
:101F900011C0772321F09EE8872F762F05C0662396
:101FA00071F096E8862F70E060E02AF09A95660F4F
:101FB000771F881FDAF7880F9695879597F9089508
:101FC000990F0008550FAA0BE0E8FEEF161617064A
:101FD000E807F907C0F012161306E407F50798F0B2
:101FE000621B730B840B950B39F40A2661F0232BCB
:101FF000242B252B21F408950A2609F4A140A69547
:102000008FEF811D811D08950E9417100C94881078
:102010000E947A1038F00E94811020F0952311F070
:102020000C9471100C94771011240C94BC100E9425
:10203000991070F3959FC1F3950F50E0551F629F63
:10204000F001729FBB27F00DB11D639FAA27F00D11
:10205000B11DAA1F649F6627B00DA11D661F829F38
:102060002227B00DA11D621F739FB00DA11D621F1D
:10207000839FA00D611D221F749F3327A00D611D3A
:10208000231F849F600D211D822F762F6A2F11241C
:102090009F5750409AF0F1F088234AF0EE0FFF1F4F
:1020A000BB1F661F771F881F91505040A9F79E3FA6
:1020B000510580F00C9471100C94BC105F3FE4F358
:1020C000983ED4F3869577956795B795F795E795FC
:1020D0009F5FC1F7FE2B880F911D9695879597F905
:1020E000089597F99F6780E870E060E008959FEF9A
:1020F00080EC089500240A9416161706180609069F
:10210000089500240A94121613061406050608956D
:10211000092E0394000C11F4882352F0BB0F40F4F5
:10212000BF2B11F460FF04C06F5F7F4F8F4F9F4F35
:10213000089557FD9058440F551F59F05F3F71F0B7
:102140004795880F97FB991F61F09F3F79F087951E
:102150000895121613061406551FF2CF4695F1DFA7
:1021600008C0161617061806991FF1CF8695710537
:10217000610508940895E894BB2766277727CB016B
:1021800097F90895A1E21A2EAA1BBB1BFD010DC0F1
:10219000AA1FBB1FEE1FFF1FA217B307E407F50717
:1021A00020F0A21BB30BE40BF50B661F771F881FF3
:1021B000991F1A9469F760957095809590959B0189
:1021C000AC01BD01CF010895EE0FFF1F881F8BBF2B
:1021D0000790F691E02D19945058BB27AA270E942A
:1021E00004110C9488100E947A1038F00E9481101B
:1021F00020F039F49F3F19F426F40C9477100EF474
:10220000E095E7FB0C947110E92F0E94991058F3A8
:10221000BA17620773078407950720F079F4A6F5CB
:102220000C94BB100EF4E0950B2EBA2FA02D0B01D1
:10223000B90190010C01CA01A0011124FF27591B0B
:1022400099F0593F50F4503E68F11A16F040A22F11
:10225000232F342F4427585FF3CF46953795279582
:10226000A795F0405395C9F77EF41F16BA0B620B81
:10227000730B840BBAF09150A1F0FF0FBB1F661FC8
:10228000771F881FC2F70EC0BA0F621F731F841F0B
:1022900048F4879577956795B795F7959E3F08F031
:1022A000B0CF9395880F08F09927EE0F97958795F3
:1022B00008950E946D110C9488100E94811058F0AE
:1022C0000E947A1040F029F45F3F29F00C947110BD
:1022D00051110C94BC100C9477100E94991068F363
:1022E0009923B1F3552391F3951B550BBB27AA27CF
:1022F00062177307840738F09F5F5F4F220F331F09
:10230000441FAA1FA9F335D00E2E3AF0E0E832D0D0
:1023100091505040E695001CCAF72BD0FE2F29D0D3
:10232000660F771F881FBB1F261737074807AB07A5
:10233000B0E809F0BB0B802DBF01FF2793585F4F1A
:102340003AF09E3F510578F00C9471100C94BC103B
:102350005F3FE4F3983ED4F3869577956795B795FC
:10236000F7959F5FC9F7880F911D9695879597F907
:102370000895E1E0660F771F881FBB1F6217730780
:102380008407BA0720F0621B730B840BBA0BEE1F95
:1023900088F7E09508950E94A11088F09F5798F063
:1023A000B92F9927B751B0F0E1F0660F771F881F5A
:1023B000991F1AF0BA95C9F714C0B13091F00E9474
:1023C000BB10B1E008950C94BB10672F782F8827BD
:1023D000B85F39F0B93FCCF3869577956795B3959B
:1023E000D9F73EF490958095709561957F4F8F4F0A
:1023F0009F4F08950E94E00F08F48FEF08950E9408
:10240000E00F880B990B08950F931F93CF93DF93E1
:10241000CDB7DEB72E970FB6F894DEBF0FBECDBF97
:102420000E891F89888D998D26E02C831A83098354
:1024300097FF02C080E090E801979E838D83AE01F4
:10244000445E5F4F6A8D7B8DCE0101960E944112E2
:102450004D815E8157FD0AC02F8138854217530791
:102460000CF49A01020F131FF80110822E960FB67A
:10247000F894DEBF0FBECDBFDF91CF911F910F91BA
:1024800008952F923F924F925F926F927F928F9218
:102490009F92AF92BF92CF92DF92EF92FF920F93F3
:1024A0001F93CF93DF9300D000D000D01F921F92D4
:1024B000CDB7DEB77C013B018A01FC011782168291
:1024C000838181FFDDC1CE0101965C01F70193811B
:1024D000F30193FD859193FF81913F01882309F4D6
:1024E00053C1853239F493FD859193FF81913F016A
:1024F000853229F4B70190E00E945914E7CF912C5E
:10250000212C312CFFE1F31538F08B3211F190F4CE
:10251000803209F1833229F137FC3CC020ED280FCD
:102520002A3050F536FE20C08AE0989E200D1124F6
:10253000922E06C08D3291F0803371F7689430F896
:10254000F30193FD859193FF81913F018111DACFD2
:1025500021C0689431F8689432F8F2CF689433F867
:10256000EFCF689434F8ECCFEAE02E9E200D1124D2
:10257000222E689435F8E4CF8E3229F436FC04C15B
:10258000689436F8DDCF8C3619F4689437F8D8CFD4
:102590008836B1F2982F9F7D95549330E0F08336C2
:1025A000A1F18337C1F1833509F063C02801F2E05E
:1025B0004F0E511CF801C080D180692D70E036FCAF
:1025C00002C06FEF7FEFC6010E9443144C01689474
:1025D00037F882010AC00C5F1F4FFFE3F98388249C
:1025E0008394912C6501E89437F833FE2DC0522C6A
:1025F0008114910471F5552009F468CFB70180E288
:1026000090E00E9459145A94F6CFF8018081898392
:102610000E5F1F4FE4CF2801F2E04F0E511CF8016E
:10262000C080D180692D70E036FC02C06FEF7FEF73
:10263000C6010E944E144C018201D5CFB70180E241
:1026400090E00E9459142A942814190409F0B0F754
:10265000CECFF60137FC859137FE81916F01B7012E
:1026600090E00E94591451105A94F1E08F1A910889
:10267000BFCF843619F0893609F077C0F80137FEEC
:102680006BC060817181828193810C5F1F4FF32D3C
:10269000FF763F2E97FF09C09095809570956195C4
:1026A0007F4F8F4F9F4F689437F82AE030E0A501A5
:1026B0000E948914C82ECA188C2C432C36FE0CC0DC
:1026C000E89440F8C91440F434FE05C032FC03C05D
:1026D000F32DFE7E4F2E892C44FEAAC0FE01EC0D88
:1026E000F11D8081803309F09CC0242D297E422E6B
:1026F000842D8870582E43FCAAC040FEA4C09C2C98
:10270000821418F42C0C922C981844FEA6C0B70121
:1027100080E390E00E94591442FE09C088E790E0EF
:1027200041FE02C088E590E0B7010E945914C91427
:1027300008F49FC0CA94D12C9FEFC91AD90ACA0CB9
:10274000DB1CF60182916F01B70190E00E945914E1
:10275000AC14BD04B1F74FCF60817181072E000C1E
:10276000880B990B0E5F1F4F92CFD32CE894D4F8AF
:102770002AE030E08537E1F1232D297FD22E8F36F4
:10278000A9F1F0F4883551F1F701868197812B96F4
:102790000FB6F894DEBF0FBECDBFDF91CF911F9172
:1027A0000F91FF90EF90DF90CF90BF90AF909F90F0
:1027B0008F907F906F905F904F903F902F900895F3
:1027C000803749F0883701F7D4FE02C06894D2F808
:1027D00020E130E00DC06894D4F8F6CF34FE03C099
:1027E000822F8660D82E20E132E002C028E030E05F
:1027F000F801D7FE0FC060817181828193810C5FE7
:102800001F4FA5010E948914C82ECA183D2CE894B8
:1028100037F852CF6081718190E080E00E5F1F4FEA
:10282000F0CF42FC02C0839463CF8394839460CF43
:10283000842D867809F45CCFF6CFB70180E290E072
:102840000E94591483948214C0F3512C5ECF522CF1
:102850005818821408F459CFF8CF842D867809F4DB
:1028600066CF8BE241FE80E247FC8DE2B70190E04B
:102870005CCFB70180E390E00E9459149A9457CF3F
:102880008FEF9FEF84CFFC010590615070400110E5
:10289000D8F7809590958E0F9F1F0895FC01615089
:1028A000704001900110D8F7809590958E0F9F1F72
:1028B00008950F931F93CF93DF93182F092FEB01E8
:1028C0008B8181FD09C01FEF0FEF812F902FDF91CA
:1028D000CF911F910F91089582FF14C02E813F81E7
:1028E0008C819D81281739073CF4E881F981CF015B
:1028F00001969983888310838E819F8101969F839F
:102900008E83E3CFE885F985812F1995892BA1F373
:10291000DACFFA01AA27283051F1203181F1E89469
:102920006F936E7F6E5F7F4F8F4F9F4FAF4FB1E0C2
:102930003ED0B4E03CD0670F781F891F9A1FA11DBD
:10294000680F791F8A1F911DA11D6A0F711D811DBE
:10295000911DA11D20D009F468943F912AE0269F83
:1029600011243019305D3193DEF6CF010895462FE2
:102970004770405D4193B3E00FD0C9F7F6CF462FC3
:102980004F70405D4A3318F0495D31FD405241932C
:1029900002D0A9F7EACFB4E0A695979587957795E9
:1029A0006795BA95C9F700976105710508959B0170
:1029B000AC010A2E06945795479537952795BA95F9
:1029C000C9F7620F731F841F951FA01D0895F89407
:0229D000FFCF37
:1029D200A702CB03D303DB03E303EB03F303FB0302
:1029E20003040B0413040000000026078606B30646
:1029F2008E07E406C206D60600000000DB07860644
:102A02000808E607FD07F207E7071B5B003E006EBA
:102A1200616E00696E66006F76660020202020F0ED
:102A22009F94B40020202020F09F9FA200202043EA
:102A3200656C63697573200046616872656E6865CE
:102A42006974004300460020202020F09F869700F2
:102A520020202020F09F86980044C3A96D617272E5
:102A62006167652064752072C3A9636570746575BA
:102A7200722E2E2E000D0A001B5B324A1B5B480091
:102A82001B5B34336D001B5B306D001B5B34346D9C
:102A9200004C454431004C4544320052454C4149BA
:102AA20000556E6974C3A92064652074656D70C396
:102AB200A97261747572650044C3A9746563746513
:102AC2007572206465206D6F7576656D656E742014
:102AD2006163746976C3A90052C3A974726F2DC36E
:102AE200A9636C616972616765206475204C434417
:102AF20000426F75746F6E2070616E69717565004A
:102B02004D6F7576656D656E742064C3A9746563D7
:102B120074C3A90054656D70C3A97261747572653E
:102B22000048756D69646974C3A900447572C3A9CC
:102B320065206427616C61726D652F70616E6971C9
:102B4200756500486575726520647520554E4F00A5
:102B5200C3897461742064752073797374C3A86D1A
:102B620065002500253032643A253032643A25303A
:102B7200326400503A20001B5B33356D006B5061AC
:102B82002000413A20002564206A6F757225730087
:102B9200202020202020202020200031EFB88FE2AA
:102BA20083A30032EFB88FE283A30033EFB88FE242
:102BB20083A30034EFB88FE283A30035EFB88FE22E
:102BC20083A30036EFB88FE283A30037EFB88FE21A
:102BD20083A30038EFB88FE283A30039EFB88FE206
:082BE20083A300F09F949F0003
:00000001FF
